{
  "contractName": "App",
  "abi": [
    {
      "constant": true,
      "inputs": [],
      "name": "getElloMessage",
      "outputs": [
        {
          "internalType": "string",
          "name": "",
          "type": "string"
        }
      ],
      "payable": false,
      "stateMutability": "view",
      "type": "function"
    }
  ],
  "bytecode": "0x60c060405260096080819052680456c6c6f20436861760bc1b60a090815261002a916000919061003d565b5034801561003757600080fd5b506100d8565b828054600181600116156101000203166002900490600052602060002090601f016020900481019282601f1061007e57805160ff19168380011785556100ab565b828001600101855582156100ab579182015b828111156100ab578251825591602001919060010190610090565b506100b79291506100bb565b5090565b6100d591905b808211156100b757600081556001016100c1565b90565b610178806100e76000396000f3fe608060405234801561001057600080fd5b506004361061002b5760003560e01c806325c938f414610030575b600080fd5b6100386100ad565b6040805160208082528351818301528351919283929083019185019080838360005b8381101561007257818101518382015260200161005a565b50505050905090810190601f16801561009f5780820380516001836020036101000a031916815260200191505b509250505060405180910390f35b60008054604080516020601f60026000196101006001881615020190951694909404938401819004810282018101909252828152606093909290918301828280156101395780601f1061010e57610100808354040283529160200191610139565b820191906000526020600020905b81548152906001019060200180831161011c57829003601f168201915b505050505090509056fea265627a7a72315820b0fa620def9e72cd576f3934385b117d162220f26acd301c179053d7b91938a764736f6c63430005100032",
  "source": "pragma solidity ^0.5.16;\n\ncontract App {\n    string private elloChap = 'Ello Chap';\n\n    function getElloMessage() public view returns (string memory){\n        return elloChap;\n    }\n}",
  "sourcePath": "/Users/andrev/Documents/dev/ether-training/etherium-app/contracts/app.sol",
  "compiler": {
    "name": "solc",
    "version": "0.5.16+commit.9c3226ce.Emscripten.clang"
  },
  "schemaVersion": "3.4.11",
  "updatedAt": "2022-11-27T18:55:37.451Z",
  "devdoc": {
    "methods": {}
  },
  "userdoc": {
    "methods": {}
  }
}